{
  "_format": "hh-sol-artifact-1",
  "contractName": "Bank",
  "sourceName": "contracts/Bank.sol",
  "abi": [
    {
      "inputs": [],
      "stateMutability": "nonpayable",
      "type": "constructor"
    },
    {
      "inputs": [],
      "name": "bankName",
      "outputs": [
        {
          "internalType": "string",
          "name": "",
          "type": "string"
        }
      ],
      "stateMutability": "view",
      "type": "function"
    },
    {
      "inputs": [],
      "name": "bankOwner",
      "outputs": [
        {
          "internalType": "address",
          "name": "",
          "type": "address"
        }
      ],
      "stateMutability": "view",
      "type": "function"
    },
    {
      "inputs": [
        {
          "internalType": "address",
          "name": "",
          "type": "address"
        }
      ],
      "name": "customerBalance",
      "outputs": [
        {
          "internalType": "uint256",
          "name": "",
          "type": "uint256"
        }
      ],
      "stateMutability": "view",
      "type": "function"
    },
    {
      "inputs": [],
      "name": "depositMoney",
      "outputs": [],
      "stateMutability": "payable",
      "type": "function"
    },
    {
      "inputs": [],
      "name": "getBankBalance",
      "outputs": [
        {
          "internalType": "uint256",
          "name": "",
          "type": "uint256"
        }
      ],
      "stateMutability": "view",
      "type": "function"
    },
    {
      "inputs": [],
      "name": "getCustomerBalance",
      "outputs": [
        {
          "internalType": "uint256",
          "name": "",
          "type": "uint256"
        }
      ],
      "stateMutability": "view",
      "type": "function"
    },
    {
      "inputs": [
        {
          "internalType": "string",
          "name": "_name",
          "type": "string"
        }
      ],
      "name": "setBankName",
      "outputs": [],
      "stateMutability": "nonpayable",
      "type": "function"
    },
    {
      "inputs": [
        {
          "internalType": "address payable",
          "name": "_to",
          "type": "address"
        },
        {
          "internalType": "uint256",
          "name": "_total",
          "type": "uint256"
        }
      ],
      "name": "withdrawMoney",
      "outputs": [],
      "stateMutability": "nonpayable",
      "type": "function"
    }
  ],
  "bytecode": "0x60806040523480156200001157600080fd5b50336000806101000a81548173ffffffffffffffffffffffffffffffffffffffff021916908373ffffffffffffffffffffffffffffffffffffffff160217905550620000be6040518060400160405280601681526020017f3e3e3e3e42616e6b206f776e65722066726f6d2025730000000000000000000081525060008054906101000a900473ffffffffffffffffffffffffffffffffffffffff16620000c460201b620005d31760201c565b620002b0565b620001668282604051602401620000dd929190620001e5565b6040516020818303038152906040527f319af333000000000000000000000000000000000000000000000000000000007bffffffffffffffffffffffffffffffffffffffffffffffffffffffff19166020820180517bffffffffffffffffffffffffffffffffffffffffffffffffffffffff83818316178352505050506200016a60201b60201c565b5050565b60008151905060006a636f6e736f6c652e6c6f679050602083016000808483855afa5050505050565b6200019e8162000235565b82525050565b6000620001b18262000219565b620001bd818562000224565b9350620001cf81856020860162000269565b620001da816200029f565b840191505092915050565b60006040820190508181036000830152620002018185620001a4565b905062000212602083018462000193565b9392505050565b600081519050919050565b600082825260208201905092915050565b6000620002428262000249565b9050919050565b600073ffffffffffffffffffffffffffffffffffffffff82169050919050565b60005b83811015620002895780820151818401526020810190506200026c565b8381111562000299576000848401525b50505050565b6000601f19601f8301169050919050565b610e6180620002c06000396000f3fe60806040526004361061007b5760003560e01c80637b83b50b1161004e5780637b83b50b1461011b578063a853409a14610146578063e147aaa714610171578063f274c8971461019c5761007b565b806316c05aa21461008057806327d358011461008a57806337ebe47b146100b557806370142690146100f2575b600080fd5b6100886101c5565b005b34801561009657600080fd5b5061009f610260565b6040516100ac9190610a92565b60405180910390f35b3480156100c157600080fd5b506100dc60048036038101906100d791906107e2565b6102ee565b6040516100e99190610b64565b60405180910390f35b3480156100fe57600080fd5b5061011960048036038101906101149190610847565b610306565b005b34801561012757600080fd5b506101306103ae565b60405161013d9190610b64565b60405180910390f35b34801561015257600080fd5b5061015b610445565b6040516101689190610b64565b60405180910390f35b34801561017d57600080fd5b5061018661048c565b6040516101939190610a77565b60405180910390f35b3480156101a857600080fd5b506101c360048036038101906101be919061080b565b6104b0565b005b60003411610208576040517f08c379a00000000000000000000000000000000000000000000000000000000081526004016101ff90610b04565b60405180910390fd5b34600260003373ffffffffffffffffffffffffffffffffffffffff1673ffffffffffffffffffffffffffffffffffffffff16815260200190815260200160002060008282546102579190610bfc565b92505081905550565b6001805461026d90610d16565b80601f016020809104026020016040519081016040528092919081815260200182805461029990610d16565b80156102e65780601f106102bb576101008083540402835291602001916102e6565b820191906000526020600020905b8154815290600101906020018083116102c957829003601f168201915b505050505081565b60026020528060005260406000206000915090505481565b60008054906101000a900473ffffffffffffffffffffffffffffffffffffffff1673ffffffffffffffffffffffffffffffffffffffff163373ffffffffffffffffffffffffffffffffffffffff1614610394576040517f08c379a000000000000000000000000000000000000000000000000000000000815260040161038b90610b24565b60405180910390fd5b80600190805190602001906103aa929190610698565b5050565b60008060009054906101000a900473ffffffffffffffffffffffffffffffffffffffff1673ffffffffffffffffffffffffffffffffffffffff163373ffffffffffffffffffffffffffffffffffffffff161461043f576040517f08c379a000000000000000000000000000000000000000000000000000000000815260040161043690610b44565b60405180910390fd5b47905090565b6000600260003373ffffffffffffffffffffffffffffffffffffffff1673ffffffffffffffffffffffffffffffffffffffff16815260200190815260200160002054905090565b60008054906101000a900473ffffffffffffffffffffffffffffffffffffffff1681565b600260003373ffffffffffffffffffffffffffffffffffffffff1673ffffffffffffffffffffffffffffffffffffffff16815260200190815260200160002054811115610532576040517f08c379a000000000000000000000000000000000000000000000000000000000815260040161052990610ae4565b60405180910390fd5b80600260003373ffffffffffffffffffffffffffffffffffffffff1673ffffffffffffffffffffffffffffffffffffffff16815260200190815260200160002060008282546105819190610c52565b925050819055508173ffffffffffffffffffffffffffffffffffffffff166108fc829081150290604051600060405180830381858888f193505050501580156105ce573d6000803e3d6000fd5b505050565b61066b82826040516024016105e9929190610ab4565b6040516020818303038152906040527f319af333000000000000000000000000000000000000000000000000000000007bffffffffffffffffffffffffffffffffffffffffffffffffffffffff19166020820180517bffffffffffffffffffffffffffffffffffffffffffffffffffffffff838183161783525050505061066f565b5050565b60008151905060006a636f6e736f6c652e6c6f679050602083016000808483855afa5050505050565b8280546106a490610d16565b90600052602060002090601f0160209004810192826106c6576000855561070d565b82601f106106df57805160ff191683800117855561070d565b8280016001018555821561070d579182015b8281111561070c5782518255916020019190600101906106f1565b5b50905061071a919061071e565b5090565b5b8082111561073757600081600090555060010161071f565b5090565b600061074e61074984610bb0565b610b7f565b90508281526020810184848401111561076657600080fd5b610771848285610cd4565b509392505050565b60008135905061078881610de6565b92915050565b60008135905061079d81610dfd565b92915050565b600082601f8301126107b457600080fd5b81356107c484826020860161073b565b91505092915050565b6000813590506107dc81610e14565b92915050565b6000602082840312156107f457600080fd5b600061080284828501610779565b91505092915050565b6000806040838503121561081e57600080fd5b600061082c8582860161078e565b925050602061083d858286016107cd565b9150509250929050565b60006020828403121561085957600080fd5b600082013567ffffffffffffffff81111561087357600080fd5b61087f848285016107a3565b91505092915050565b61089181610c86565b82525050565b60006108a282610be0565b6108ac8185610beb565b93506108bc818560208601610ce3565b6108c581610dd5565b840191505092915050565b60006108dd602583610beb565b91507f596f75206861766520696e7375666669656e742066756e647320746f2077697460008301527f68647261770000000000000000000000000000000000000000000000000000006020830152604082019050919050565b6000610943602983610beb565b91507f596f75206e65656420746f206465706f73697420736f6d6520616d6f756e742060008301527f6f66206d6f6e65792100000000000000000000000000000000000000000000006020830152604082019050919050565b60006109a9603183610beb565b91507f596f75206d75737420626520746865206f776e657220746f207365742074686560008301527f206e616d65206f66207468652062616e6b0000000000000000000000000000006020830152604082019050919050565b6000610a0f603683610beb565b91507f596f75206d75737420626520746865206f776e6572206f66207468652062616e60008301527f6b20746f2073656520616c6c2062616c616e6365732e000000000000000000006020830152604082019050919050565b610a7181610cca565b82525050565b6000602082019050610a8c6000830184610888565b92915050565b60006020820190508181036000830152610aac8184610897565b905092915050565b60006040820190508181036000830152610ace8185610897565b9050610add6020830184610888565b9392505050565b60006020820190508181036000830152610afd816108d0565b9050919050565b60006020820190508181036000830152610b1d81610936565b9050919050565b60006020820190508181036000830152610b3d8161099c565b9050919050565b60006020820190508181036000830152610b5d81610a02565b9050919050565b6000602082019050610b796000830184610a68565b92915050565b6000604051905081810181811067ffffffffffffffff82111715610ba657610ba5610da6565b5b8060405250919050565b600067ffffffffffffffff821115610bcb57610bca610da6565b5b601f19601f8301169050602081019050919050565b600081519050919050565b600082825260208201905092915050565b6000610c0782610cca565b9150610c1283610cca565b9250827fffffffffffffffffffffffffffffffffffffffffffffffffffffffffffffffff03821115610c4757610c46610d48565b5b828201905092915050565b6000610c5d82610cca565b9150610c6883610cca565b925082821015610c7b57610c7a610d48565b5b828203905092915050565b6000610c9182610caa565b9050919050565b6000610ca382610caa565b9050919050565b600073ffffffffffffffffffffffffffffffffffffffff82169050919050565b6000819050919050565b82818337600083830152505050565b60005b83811015610d01578082015181840152602081019050610ce6565b83811115610d10576000848401525b50505050565b60006002820490506001821680610d2e57607f821691505b60208210811415610d4257610d41610d77565b5b50919050565b7f4e487b7100000000000000000000000000000000000000000000000000000000600052601160045260246000fd5b7f4e487b7100000000000000000000000000000000000000000000000000000000600052602260045260246000fd5b7f4e487b7100000000000000000000000000000000000000000000000000000000600052604160045260246000fd5b6000601f19601f8301169050919050565b610def81610c86565b8114610dfa57600080fd5b50565b610e0681610c98565b8114610e1157600080fd5b50565b610e1d81610cca565b8114610e2857600080fd5b5056fea264697066735822122036a830b7420d2e5d8d0bbd984113d005300f72e041cff260f6b17e46db7df4b064736f6c63430008000033",
  "linkReferences": {},
  "deployedLinkReferences": {}
}